{
  "contractName": "ResearchProjects",
  "abi": [
    {
      "constant": false,
      "inputs": [
        {
          "internalType": "string",
          "name": "_surveyId",
          "type": "string"
        },
        {
          "internalType": "string",
          "name": "_userId",
          "type": "string"
        },
        {
          "internalType": "bool",
          "name": "_willShare",
          "type": "bool"
        }
      ],
      "name": "addParticipant",
      "outputs": [],
      "payable": false,
      "stateMutability": "nonpayable",
      "type": "function"
    },
    {
      "constant": false,
      "inputs": [
        {
          "internalType": "string",
          "name": "_surveyId",
          "type": "string"
        },
        {
          "internalType": "string",
          "name": "_userId",
          "type": "string"
        },
        {
          "internalType": "bool",
          "name": "_willShare",
          "type": "bool"
        }
      ],
      "name": "setSharingPreference",
      "outputs": [],
      "payable": false,
      "stateMutability": "nonpayable",
      "type": "function"
    },
    {
      "constant": true,
      "inputs": [
        {
          "internalType": "string",
          "name": "_surveyId",
          "type": "string"
        }
      ],
      "name": "isSharable",
      "outputs": [
        {
          "internalType": "bool",
          "name": "",
          "type": "bool"
        }
      ],
      "payable": false,
      "stateMutability": "view",
      "type": "function"
    },
    {
      "constant": false,
      "inputs": [
        {
          "internalType": "string",
          "name": "_id",
          "type": "string"
        },
        {
          "internalType": "string",
          "name": "_hash",
          "type": "string"
        }
      ],
      "name": "addHash",
      "outputs": [],
      "payable": false,
      "stateMutability": "nonpayable",
      "type": "function"
    },
    {
      "constant": true,
      "inputs": [
        {
          "internalType": "string",
          "name": "_id",
          "type": "string"
        }
      ],
      "name": "getHash",
      "outputs": [
        {
          "internalType": "string",
          "name": "",
          "type": "string"
        }
      ],
      "payable": false,
      "stateMutability": "view",
      "type": "function"
    }
  ],
  "bytecode": "0x608060405234801561001057600080fd5b50610c62806100206000396000f3fe608060405234801561001057600080fd5b50600436106100575760003560e01c80634ca491de1461005c5780635b6beeb9146101145780639da664df1461022d578063c2a080151461035a578063ed4cfe0b14610483575b600080fd5b6101006004803603602081101561007257600080fd5b810190602081018135600160201b81111561008c57600080fd5b82018360208201111561009e57600080fd5b803590602001918460018302840111600160201b831117156100bf57600080fd5b91908080601f0160208091040260200160405190810160405280939291908181526020018383808284376000920191909152509295506105ae945050505050565b604080519115158252519081900360200190f35b6101b86004803603602081101561012a57600080fd5b810190602081018135600160201b81111561014457600080fd5b82018360208201111561015657600080fd5b803590602001918460018302840111600160201b8311171561017757600080fd5b91908080601f0160208091040260200160405190810160405280939291908181526020018383808284376000920191909152509295506106c0945050505050565b6040805160208082528351818301528351919283929083019185019080838360005b838110156101f25781810151838201526020016101da565b50505050905090810190601f16801561021f5780820380516001836020036101000a031916815260200191505b509250505060405180910390f35b6103586004803603606081101561024357600080fd5b810190602081018135600160201b81111561025d57600080fd5b82018360208201111561026f57600080fd5b803590602001918460018302840111600160201b8311171561029057600080fd5b91908080601f0160208091040260200160405190810160405280939291908181526020018383808284376000920191909152509295949360208101935035915050600160201b8111156102e257600080fd5b8201836020820111156102f457600080fd5b803590602001918460018302840111600160201b8311171561031557600080fd5b91908080601f01602080910402602001604051908101604052809392919081815260200183838082843760009201919091525092955050505035151590506107b4565b005b6103586004803603604081101561037057600080fd5b810190602081018135600160201b81111561038a57600080fd5b82018360208201111561039c57600080fd5b803590602001918460018302840111600160201b831117156103bd57600080fd5b91908080601f0160208091040260200160405190810160405280939291908181526020018383808284376000920191909152509295949360208101935035915050600160201b81111561040f57600080fd5b82018360208201111561042157600080fd5b803590602001918460018302840111600160201b8311171561044257600080fd5b91908080601f01602080910402602001604051908101604052809392919081815260200183838082843760009201919091525092955061088b945050505050565b6103586004803603606081101561049957600080fd5b810190602081018135600160201b8111156104b357600080fd5b8201836020820111156104c557600080fd5b803590602001918460018302840111600160201b831117156104e657600080fd5b91908080601f0160208091040260200160405190810160405280939291908181526020018383808284376000920191909152509295949360208101935035915050600160201b81111561053857600080fd5b82018360208201111561054a57600080fd5b803590602001918460018302840111600160201b8311171561056b57600080fd5b91908080601f0160208091040260200160405190810160405280939291908181526020018383808284376000920191909152509295505050503515159050610904565b6000805b6000836040518082805190602001908083835b602083106105e45780518252601f1990920191602091820191016105c5565b51815160209384036101000a600019018019909216911617905292019485525060405193849003019092205483101591506106b59050576000836040518082805190602001908083835b6020831061064d5780518252601f19909201916020918201910161062e565b51815160209384036101000a600019018019909216911617905292019485525060405193849003019092208054909250839150811061068857fe5b600091825260209091206001600290920201015460ff166106ad5760009150506106bb565b6001016105b2565b50600190505b919050565b60606001826040518082805190602001908083835b602083106106f45780518252601f1990920191602091820191016106d5565b518151600019602094850361010090810a820192831692199390931691909117909252949092019687526040805197889003820188208054601f60026001831615909802909501169590950492830182900482028801820190528187529294509250508301828280156107a85780601f1061077d576101008083540402835291602001916107a8565b820191906000526020600020905b81548152906001019060200180831161078b57829003601f168201915b50505050509050919050565b6107bc610b7a565b604051806040016040528084815260200183151581525090506000846040518082805190602001908083835b602083106108075780518252601f1990920191602091820191016107e8565b51815160209384036101000a6000190180199092169116179052920194855250604051938490038101909320805460018101808355600092835291859020865180519396889650600290930290910193506108689284929190910190610b92565b50602091909101516001909101805460ff19169115159190911790555050505050565b806001836040518082805190602001908083835b602083106108be5780518252601f19909201916020918201910161089f565b51815160209384036101000a600019018019909216911617905292019485525060405193849003810190932084516108ff9591949190910192509050610b92565b505050565b60005b6000846040518082805190602001908083835b602083106109395780518252601f19909201916020918201910161091a565b51815160209384036101000a60001901801990921691161790529201948552506040519384900301909220548310159150610b74905057826040516020018082805190602001908083835b602083106109a35780518252601f199092019160209182019101610984565b6001836020036101000a038019825116818451168082178552505050505050905001915050604051602081830303815290604052805190602001206000856040518082805190602001908083835b60208310610a105780518252601f1990920191602091820191016109f1565b51815160209384036101000a6000190180199092169116179052920194855250604051938490030190922080549092508491508110610a4b57fe5b90600052602060002090600202016000016040516020018082805460018160011615610100020316600290048015610aba5780601f10610a98576101008083540402835291820191610aba565b820191906000526020600020905b815481529060010190602001808311610aa6575b5050915050604051602081830303815290604052805190602001201415610b6c57816000856040518082805190602001908083835b60208310610b0e5780518252601f199092019160209182019101610aef565b51815160209384036101000a6000190180199092169116179052920194855250604051938490030190922080549092508491508110610b4957fe5b60009182526020909120600290910201600101805460ff19169115159190911790555b600101610907565b50505050565b60408051808201909152606081526000602082015290565b828054600181600116156101000203166002900490600052602060002090601f016020900481019282601f10610bd357805160ff1916838001178555610c00565b82800160010185558215610c00579182015b82811115610c00578251825591602001919060010190610be5565b50610c0c929150610c10565b5090565b610c2a91905b80821115610c0c5760008155600101610c16565b9056fea265627a7a72315820493d0a705f1819b0952dfc8d9c4771e827ab4c2b323f110f16203bb873da5f2864736f6c63430005100032",
  "source": "// SPDX-License-Identifier: MIT\npragma solidity 0.5.16;\n\ncontract ResearchProjects {\n\n    struct Participant {\n        string id;\n        bool willShare;\n    }\n\n    mapping(string => Participant[]) private participants;\n\n    mapping(string => string) private hashes;\n\n    function addParticipant(string memory _surveyId, string memory _userId, bool _willShare) public  {\n        Participant memory participant = Participant(_userId, _willShare);\n        participants[_surveyId].push(participant);\n    }\n\n    function setSharingPreference(string memory _surveyId, string memory _userId, bool _willShare) public  {\n\n        for (uint i = 0; i < participants[_surveyId].length; i++) {\n\n            if (keccak256(abi.encodePacked(participants[_surveyId][i].id)) == keccak256(abi.encodePacked(_userId))) {\n                participants[_surveyId][i].willShare = _willShare;\n            }\n\n        }\n\n    }\n\n    function isSharable(string memory _surveyId) public view returns (bool) {\n\n        for (uint i = 0; i < participants[_surveyId].length; i++) {\n\n            if (!participants[_surveyId][i].willShare) {\n                return false;\n            }\n\n        }\n\n        return true;\n\n    }\n\n    function addHash(string memory _id, string memory _hash) public  {\n        hashes[_id] = _hash;\n    }\n\n    function getHash(string memory _id) public view returns (string memory) {\n        return hashes[_id];\n    }\n\n}\n",
  "sourcePath": "/Users/kieranarul/Desktop/Personal Files/SCHOOL/UNIVERSITY/Durham Year 3/COMP3012 Personal Project/final-year-project/contracts/ResearchProjects.sol",
  "compiler": {
    "name": "solc",
    "version": "0.5.16+commit.9c3226ce.Emscripten.clang"
  },
  "schemaVersion": "3.4.13",
  "updatedAt": "2023-05-02T18:11:41.162Z",
  "networkType": "ethereum",
  "devdoc": {
    "methods": {}
  },
  "userdoc": {
    "methods": {}
  }
}