{
  "contractName": "ResearchProjects",
  "abi": [
    {
      "constant": false,
      "inputs": [
        {
          "internalType": "string",
          "name": "_surveyId",
          "type": "string"
        },
        {
          "internalType": "string",
          "name": "_userId",
          "type": "string"
        },
        {
          "internalType": "bool",
          "name": "_willShare",
          "type": "bool"
        }
      ],
      "name": "addParticipant",
      "outputs": [],
      "payable": false,
      "stateMutability": "nonpayable",
      "type": "function"
    },
    {
      "constant": false,
      "inputs": [
        {
          "internalType": "string",
          "name": "_surveyId",
          "type": "string"
        },
        {
          "internalType": "string",
          "name": "_userId",
          "type": "string"
        },
        {
          "internalType": "bool",
          "name": "_willShare",
          "type": "bool"
        }
      ],
      "name": "setSharingPreference",
      "outputs": [],
      "payable": false,
      "stateMutability": "nonpayable",
      "type": "function"
    },
    {
      "constant": false,
      "inputs": [
        {
          "internalType": "string",
          "name": "_surveyId",
          "type": "string"
        }
      ],
      "name": "isSharable",
      "outputs": [
        {
          "internalType": "bool",
          "name": "",
          "type": "bool"
        }
      ],
      "payable": false,
      "stateMutability": "nonpayable",
      "type": "function"
    },
    {
      "constant": false,
      "inputs": [
        {
          "internalType": "string",
          "name": "_id",
          "type": "string"
        },
        {
          "internalType": "string",
          "name": "_hash",
          "type": "string"
        }
      ],
      "name": "addHash",
      "outputs": [],
      "payable": false,
      "stateMutability": "nonpayable",
      "type": "function"
    },
    {
      "constant": false,
      "inputs": [
        {
          "internalType": "string",
          "name": "_id",
          "type": "string"
        }
      ],
      "name": "getHash",
      "outputs": [
        {
          "internalType": "string",
          "name": "",
          "type": "string"
        }
      ],
      "payable": false,
      "stateMutability": "nonpayable",
      "type": "function"
    }
  ],
  "bytecode": "0x608060405234801561001057600080fd5b50610b49806100206000396000f3fe608060405234801561001057600080fd5b50600436106100575760003560e01c80634ca491de1461005c5780635b6beeb9146101145780639da664df1461022d578063c2a080151461035a578063ed4cfe0b14610483575b600080fd5b6101006004803603602081101561007257600080fd5b810190602081018135600160201b81111561008c57600080fd5b82018360208201111561009e57600080fd5b803590602001918460018302840111600160201b831117156100bf57600080fd5b91908080601f0160208091040260200160405190810160405280939291908181526020018383808284376000920191909152509295506105ae945050505050565b604080519115158252519081900360200190f35b6101b86004803603602081101561012a57600080fd5b810190602081018135600160201b81111561014457600080fd5b82018360208201111561015657600080fd5b803590602001918460018302840111600160201b8311171561017757600080fd5b91908080601f016020809104026020016040519081016040528093929190818152602001838380828437600092019190915250929550610665945050505050565b6040805160208082528351818301528351919283929083019185019080838360005b838110156101f25781810151838201526020016101da565b50505050905090810190601f16801561021f5780820380516001836020036101000a031916815260200191505b509250505060405180910390f35b6103586004803603606081101561024357600080fd5b810190602081018135600160201b81111561025d57600080fd5b82018360208201111561026f57600080fd5b803590602001918460018302840111600160201b8311171561029057600080fd5b91908080601f0160208091040260200160405190810160405280939291908181526020018383808284376000920191909152509295949360208101935035915050600160201b8111156102e257600080fd5b8201836020820111156102f457600080fd5b803590602001918460018302840111600160201b8311171561031557600080fd5b91908080601f0160208091040260200160405190810160405280939291908181526020018383808284376000920191909152509295505050503515159050610759565b005b6103586004803603604081101561037057600080fd5b810190602081018135600160201b81111561038a57600080fd5b82018360208201111561039c57600080fd5b803590602001918460018302840111600160201b831117156103bd57600080fd5b91908080601f0160208091040260200160405190810160405280939291908181526020018383808284376000920191909152509295949360208101935035915050600160201b81111561040f57600080fd5b82018360208201111561042157600080fd5b803590602001918460018302840111600160201b8311171561044257600080fd5b91908080601f016020809104026020016040519081016040528093929190818152602001838380828437600092019190915250929550610830945050505050565b6103586004803603606081101561049957600080fd5b810190602081018135600160201b8111156104b357600080fd5b8201836020820111156104c557600080fd5b803590602001918460018302840111600160201b831117156104e657600080fd5b91908080601f0160208091040260200160405190810160405280939291908181526020018383808284376000920191909152509295949360208101935035915050600160201b81111561053857600080fd5b82018360208201111561054a57600080fd5b803590602001918460018302840111600160201b8311171561056b57600080fd5b91908080601f01602080910402602001604051908101604052809392919081815260200183838082843760009201919091525092955050505035151590506108a9565b6000806000836040518082805190602001908083835b602083106105e35780518252601f1990920191602091820191016105c4565b51815160209384036101000a60001901801990921691161790529201948552506040519384900301909220925060009150505b81548110156106595781818154811061062b57fe5b600091825260209091206001600290920201015460ff1661065157600092505050610660565b600101610616565b5060019150505b919050565b60606001826040518082805190602001908083835b602083106106995780518252601f19909201916020918201910161067a565b518151600019602094850361010090810a820192831692199390931691909117909252949092019687526040805197889003820188208054601f600260018316159098029095011695909504928301829004820288018201905281875292945092505083018282801561074d5780601f106107225761010080835404028352916020019161074d565b820191906000526020600020905b81548152906001019060200180831161073057829003601f168201915b50505050509050919050565b610761610a61565b604051806040016040528084815260200183151581525090506000846040518082805190602001908083835b602083106107ac5780518252601f19909201916020918201910161078d565b51815160209384036101000a60001901801990921691161790529201948552506040519384900381019093208054600181018083556000928352918590208651805193968896506002909302909101935061080d9284929190910190610a79565b50602091909101516001909101805460ff19169115159190911790555050505050565b806001836040518082805190602001908083835b602083106108635780518252601f199092019160209182019101610844565b51815160209384036101000a600019018019909216911617905292019485525060405193849003810190932084516108a49591949190910192509050610a79565b505050565b600080846040518082805190602001908083835b602083106108dc5780518252601f1990920191602091820191016108bd565b51815160209384036101000a60001901801990921691161790529201948552506040519384900301909220925060009150505b8154811015610a5a57836040516020018082805190602001908083835b6020831061094b5780518252601f19909201916020918201910161092c565b6001836020036101000a0380198251168184511680821785525050505050509050019150506040516020818303038152906040528051906020012082828154811061099257fe5b90600052602060002090600202016000016040516020018082805460018160011615610100020316600290048015610a015780601f106109df576101008083540402835291820191610a01565b820191906000526020600020905b8154815290600101906020018083116109ed575b5050915050604051602081830303815290604052805190602001201415610a525782828281548110610a2f57fe5b60009182526020909120600290910201600101805460ff19169115159190911790555b60010161090f565b5050505050565b60408051808201909152606081526000602082015290565b828054600181600116156101000203166002900490600052602060002090601f016020900481019282601f10610aba57805160ff1916838001178555610ae7565b82800160010185558215610ae7579182015b82811115610ae7578251825591602001919060010190610acc565b50610af3929150610af7565b5090565b610b1191905b80821115610af35760008155600101610afd565b9056fea265627a7a723158205dcbea79ec601f59b31b9e042a64c6b095235cb1adacbce77b48231549db395864736f6c63430005100032",
  "source": "// SPDX-License-Identifier: MIT\npragma solidity 0.5.16;\n\ncontract ResearchProjects {\n\n    struct Participant {\n        string id;\n        bool willShare;\n    }\n\n    mapping(string => Participant[]) private participants;\n\n    mapping(string => string) private hashes;\n\n    function addParticipant(string memory _surveyId, string memory _userId, bool _willShare) public  {\n        Participant memory participant = Participant(_userId, _willShare);\n        participants[_surveyId].push(participant);\n    }\n\n    function setSharingPreference(string memory _surveyId, string memory _userId, bool _willShare) public  {\n\n        Participant[] storage surveyParticipants = participants[_surveyId];\n\n        for (uint i = 0; i < surveyParticipants.length; i++) {\n\n            if (keccak256(abi.encodePacked(surveyParticipants[i].id)) == keccak256(abi.encodePacked(_userId))) {\n                surveyParticipants[i].willShare = _willShare;\n            }\n\n        }\n\n    }\n\n    function isSharable(string memory _surveyId) public returns (bool) {\n\n        Participant[] storage surveyParticipants = participants[_surveyId];\n\n        for (uint i = 0; i < surveyParticipants.length; i++) {\n\n            if (!surveyParticipants[i].willShare) {\n                return false;\n            }\n\n        }\n\n        return true;\n\n    }\n\n    function addHash(string memory _id, string memory _hash) public  {\n        hashes[_id] = _hash;\n    }\n\n    function getHash(string memory _id) public returns (string memory) {\n        return hashes[_id];\n    }\n\n}\n",
  "sourcePath": "/Users/kieranarul/Desktop/Personal Files/SCHOOL/UNIVERSITY/Durham Year 3/COMP3012 Personal Project/final-year-project/contracts/ResearchProjects.sol",
  "compiler": {
    "name": "solc",
    "version": "0.5.16+commit.9c3226ce.Emscripten.clang"
  },
  "schemaVersion": "3.4.13",
  "updatedAt": "2023-04-17T03:35:21.619Z",
  "networkType": "ethereum",
  "devdoc": {
    "methods": {}
  },
  "userdoc": {
    "methods": {}
  }
}